{
  "abi": [
    {
      "inputs": [],
      "stateMutability": "nonpayable",
      "type": "constructor"
    },
    {
      "inputs": [
        {
          "internalType": "bytes",
          "name": "value",
          "type": "bytes"
        }
      ],
      "name": "bytesToBytes32",
      "outputs": [
        {
          "internalType": "bytes32",
          "name": "result",
          "type": "bytes32"
        }
      ],
      "stateMutability": "nonpayable",
      "type": "function"
    },
    {
      "inputs": [
        {
          "components": [
            {
              "internalType": "bytes32",
              "name": "hash",
              "type": "bytes32"
            },
            {
              "internalType": "bytes32",
              "name": "parentHash",
              "type": "bytes32"
            },
            {
              "internalType": "bytes32",
              "name": "sha3Uncles",
              "type": "bytes32"
            },
            {
              "internalType": "address",
              "name": "miner",
              "type": "address"
            },
            {
              "internalType": "bytes32",
              "name": "stateRoot",
              "type": "bytes32"
            },
            {
              "internalType": "bytes32",
              "name": "transactionsRoot",
              "type": "bytes32"
            },
            {
              "internalType": "bytes32",
              "name": "receiptsRoot",
              "type": "bytes32"
            },
            {
              "internalType": "bytes",
              "name": "logsBloom",
              "type": "bytes"
            },
            {
              "internalType": "uint256",
              "name": "difficulty",
              "type": "uint256"
            },
            {
              "internalType": "uint256",
              "name": "number",
              "type": "uint256"
            },
            {
              "internalType": "uint256",
              "name": "gasLimit",
              "type": "uint256"
            },
            {
              "internalType": "uint256",
              "name": "gasUsed",
              "type": "uint256"
            },
            {
              "internalType": "uint256",
              "name": "timestamp",
              "type": "uint256"
            },
            {
              "internalType": "bytes",
              "name": "extraData",
              "type": "bytes"
            },
            {
              "internalType": "bytes32",
              "name": "mixHash",
              "type": "bytes32"
            },
            {
              "internalType": "uint64",
              "name": "nonce",
              "type": "uint64"
            },
            {
              "internalType": "uint256",
              "name": "totalDifficulty",
              "type": "uint256"
            }
          ],
          "internalType": "struct EthereumDecoder.BlockHeader",
          "name": "header",
          "type": "tuple"
        }
      ],
      "name": "getBlockHash",
      "outputs": [
        {
          "internalType": "bytes32",
          "name": "hash",
          "type": "bytes32"
        }
      ],
      "stateMutability": "pure",
      "type": "function"
    },
    {
      "inputs": [
        {
          "components": [
            {
              "internalType": "bytes32",
              "name": "hash",
              "type": "bytes32"
            },
            {
              "internalType": "bytes32",
              "name": "parentHash",
              "type": "bytes32"
            },
            {
              "internalType": "bytes32",
              "name": "sha3Uncles",
              "type": "bytes32"
            },
            {
              "internalType": "address",
              "name": "miner",
              "type": "address"
            },
            {
              "internalType": "bytes32",
              "name": "stateRoot",
              "type": "bytes32"
            },
            {
              "internalType": "bytes32",
              "name": "transactionsRoot",
              "type": "bytes32"
            },
            {
              "internalType": "bytes32",
              "name": "receiptsRoot",
              "type": "bytes32"
            },
            {
              "internalType": "bytes",
              "name": "logsBloom",
              "type": "bytes"
            },
            {
              "internalType": "uint256",
              "name": "difficulty",
              "type": "uint256"
            },
            {
              "internalType": "uint256",
              "name": "number",
              "type": "uint256"
            },
            {
              "internalType": "uint256",
              "name": "gasLimit",
              "type": "uint256"
            },
            {
              "internalType": "uint256",
              "name": "gasUsed",
              "type": "uint256"
            },
            {
              "internalType": "uint256",
              "name": "timestamp",
              "type": "uint256"
            },
            {
              "internalType": "bytes",
              "name": "extraData",
              "type": "bytes"
            },
            {
              "internalType": "bytes32",
              "name": "mixHash",
              "type": "bytes32"
            },
            {
              "internalType": "uint64",
              "name": "nonce",
              "type": "uint64"
            },
            {
              "internalType": "uint256",
              "name": "totalDifficulty",
              "type": "uint256"
            }
          ],
          "internalType": "struct EthereumDecoder.BlockHeader",
          "name": "header",
          "type": "tuple"
        }
      ],
      "name": "getBlockRlpData",
      "outputs": [
        {
          "internalType": "bytes",
          "name": "data",
          "type": "bytes"
        }
      ],
      "stateMutability": "pure",
      "type": "function"
    },
    {
      "inputs": [
        {
          "internalType": "bytes",
          "name": "signedTransaction",
          "type": "bytes"
        }
      ],
      "name": "getTransactionHash",
      "outputs": [
        {
          "internalType": "bytes32",
          "name": "hash",
          "type": "bytes32"
        }
      ],
      "stateMutability": "pure",
      "type": "function"
    },
    {
      "inputs": [
        {
          "internalType": "bytes",
          "name": "data",
          "type": "bytes"
        }
      ],
      "name": "toAccount",
      "outputs": [
        {
          "components": [
            {
              "internalType": "uint256",
              "name": "nonce",
              "type": "uint256"
            },
            {
              "internalType": "uint256",
              "name": "balance",
              "type": "uint256"
            },
            {
              "internalType": "bytes32",
              "name": "storageRoot",
              "type": "bytes32"
            },
            {
              "internalType": "bytes32",
              "name": "codeHash",
              "type": "bytes32"
            }
          ],
          "internalType": "struct EthereumDecoder.Account",
          "name": "account",
          "type": "tuple"
        }
      ],
      "stateMutability": "pure",
      "type": "function"
    },
    {
      "inputs": [
        {
          "internalType": "bytes",
          "name": "data",
          "type": "bytes"
        }
      ],
      "name": "toBlockHeader",
      "outputs": [
        {
          "components": [
            {
              "internalType": "bytes32",
              "name": "hash",
              "type": "bytes32"
            },
            {
              "internalType": "bytes32",
              "name": "parentHash",
              "type": "bytes32"
            },
            {
              "internalType": "bytes32",
              "name": "sha3Uncles",
              "type": "bytes32"
            },
            {
              "internalType": "address",
              "name": "miner",
              "type": "address"
            },
            {
              "internalType": "bytes32",
              "name": "stateRoot",
              "type": "bytes32"
            },
            {
              "internalType": "bytes32",
              "name": "transactionsRoot",
              "type": "bytes32"
            },
            {
              "internalType": "bytes32",
              "name": "receiptsRoot",
              "type": "bytes32"
            },
            {
              "internalType": "bytes",
              "name": "logsBloom",
              "type": "bytes"
            },
            {
              "internalType": "uint256",
              "name": "difficulty",
              "type": "uint256"
            },
            {
              "internalType": "uint256",
              "name": "number",
              "type": "uint256"
            },
            {
              "internalType": "uint256",
              "name": "gasLimit",
              "type": "uint256"
            },
            {
              "internalType": "uint256",
              "name": "gasUsed",
              "type": "uint256"
            },
            {
              "internalType": "uint256",
              "name": "timestamp",
              "type": "uint256"
            },
            {
              "internalType": "bytes",
              "name": "extraData",
              "type": "bytes"
            },
            {
              "internalType": "bytes32",
              "name": "mixHash",
              "type": "bytes32"
            },
            {
              "internalType": "uint64",
              "name": "nonce",
              "type": "uint64"
            },
            {
              "internalType": "uint256",
              "name": "totalDifficulty",
              "type": "uint256"
            }
          ],
          "internalType": "struct EthereumDecoder.BlockHeader",
          "name": "header",
          "type": "tuple"
        }
      ],
      "stateMutability": "pure",
      "type": "function"
    },
    {
      "inputs": [
        {
          "components": [
            {
              "internalType": "bytes32",
              "name": "hash",
              "type": "bytes32"
            },
            {
              "internalType": "bytes32",
              "name": "parentHash",
              "type": "bytes32"
            },
            {
              "internalType": "bytes32",
              "name": "sha3Uncles",
              "type": "bytes32"
            },
            {
              "internalType": "address",
              "name": "miner",
              "type": "address"
            },
            {
              "internalType": "bytes32",
              "name": "stateRoot",
              "type": "bytes32"
            },
            {
              "internalType": "bytes32",
              "name": "transactionsRoot",
              "type": "bytes32"
            },
            {
              "internalType": "bytes32",
              "name": "receiptsRoot",
              "type": "bytes32"
            },
            {
              "internalType": "bytes",
              "name": "logsBloom",
              "type": "bytes"
            },
            {
              "internalType": "uint256",
              "name": "difficulty",
              "type": "uint256"
            },
            {
              "internalType": "uint256",
              "name": "number",
              "type": "uint256"
            },
            {
              "internalType": "uint256",
              "name": "gasLimit",
              "type": "uint256"
            },
            {
              "internalType": "uint256",
              "name": "gasUsed",
              "type": "uint256"
            },
            {
              "internalType": "uint256",
              "name": "timestamp",
              "type": "uint256"
            },
            {
              "internalType": "bytes",
              "name": "extraData",
              "type": "bytes"
            },
            {
              "internalType": "bytes32",
              "name": "mixHash",
              "type": "bytes32"
            },
            {
              "internalType": "uint64",
              "name": "nonce",
              "type": "uint64"
            },
            {
              "internalType": "uint256",
              "name": "totalDifficulty",
              "type": "uint256"
            }
          ],
          "internalType": "struct EthereumDecoder.BlockHeader",
          "name": "header",
          "type": "tuple"
        },
        {
          "components": [
            {
              "internalType": "bytes32",
              "name": "expectedRoot",
              "type": "bytes32"
            },
            {
              "internalType": "bytes",
              "name": "key",
              "type": "bytes"
            },
            {
              "internalType": "bytes[]",
              "name": "proof",
              "type": "bytes[]"
            },
            {
              "internalType": "uint256",
              "name": "keyIndex",
              "type": "uint256"
            },
            {
              "internalType": "uint256",
              "name": "proofIndex",
              "type": "uint256"
            },
            {
              "internalType": "bytes",
              "name": "expectedValue",
              "type": "bytes"
            }
          ],
          "internalType": "struct MPT.MerkleProof",
          "name": "accountdata",
          "type": "tuple"
        },
        {
          "internalType": "uint256",
          "name": "balance",
          "type": "uint256"
        },
        {
          "internalType": "uint256",
          "name": "codeHash",
          "type": "uint256"
        },
        {
          "internalType": "uint256",
          "name": "storageHash",
          "type": "uint256"
        },
        {
          "internalType": "address",
          "name": "contractAddress",
          "type": "address"
        }
      ],
      "name": "verifyAccount",
      "outputs": [
        {
          "internalType": "bool",
          "name": "valid",
          "type": "bool"
        },
        {
          "internalType": "string",
          "name": "reason",
          "type": "string"
        }
      ],
      "stateMutability": "nonpayable",
      "type": "function"
    },
    {
      "inputs": [
        {
          "components": [
            {
              "internalType": "bytes32",
              "name": "expectedRoot",
              "type": "bytes32"
            },
            {
              "internalType": "bytes",
              "name": "key",
              "type": "bytes"
            },
            {
              "internalType": "bytes[]",
              "name": "proof",
              "type": "bytes[]"
            },
            {
              "internalType": "uint256",
              "name": "keyIndex",
              "type": "uint256"
            },
            {
              "internalType": "uint256",
              "name": "proofIndex",
              "type": "uint256"
            },
            {
              "internalType": "bytes",
              "name": "expectedValue",
              "type": "bytes"
            }
          ],
          "internalType": "struct MPT.MerkleProof",
          "name": "data",
          "type": "tuple"
        }
      ],
      "name": "verifyTrieProof",
      "outputs": [
        {
          "internalType": "bool",
          "name": "",
          "type": "bool"
        }
      ],
      "stateMutability": "view",
      "type": "function"
    }
  ],
  "bytecode": {
    "object": "0x608060405234801561001057600080fd5b50612ae8806100206000396000f3fe608060405234801561001057600080fd5b50600436106100885760003560e01c8063b3dd6a0a1161005b578063b3dd6a0a14610114578063bfe370d91461015a578063d76f7f0d1461016f578063e7617bf81461018f57600080fd5b80634d11c6f61461008d57806355eff580146100b7578063895308fa146100da578063a2deadbd146100fb575b600080fd5b6100a061009b3660046125ad565b6101af565b6040516100ae929190612682565b60405180910390f35b6100ca6100c53660046126a5565b6103d6565b60405190151581526020016100ae565b6100ed6100e83660046126d9565b6103e7565b6040519081526020016100ae565b6100ed61010936600461270d565b805160209091012090565b61012761012236600461270d565b610400565b6040516100ae91908151815260208083015190820152604080830151908201526060918201519181019190915260800190565b6100ed61016836600461270d565b6020015190565b61018261017d3660046126d9565b61042d565b6040516100ae9190612741565b6101a261019d36600461270d565b610438565b6040516100ae9190612754565b60408051600480825260a082019092526000916060918391816020015b60608152602001906001900390816101cc5790505090506101ed6000610449565b816000815181106102005761020061286e565b602002602001018190525061021487610449565b816001815181106102275761022761286e565b602002602001018190525061023b86610449565b8160028151811061024e5761024e61286e565b602002602001018190525061026285610449565b816003815181106102755761027561286e565b6020908102919091010152875160808a0151146102b1576000604051806060016040528060248152602001612a406024913992509250506103cb565b8760a00151805190602001206102c68261045c565b80519060200120146102f7576000604051806060016040528060268152602001612a8d6026913992509250506103cb565b6040516bffffffffffffffffffffffff19606086901b1660208201526034016040516020818303038152906040528051906020012061033c6101688a60200151610487565b14610366576000604051806060016040528060298152602001612a646029913992509250506103cb565b61036f886104e6565b9250826103b557505060408051808201909152601d81527f7665726966794163636f756e74202d20696e76616c69642070726f6f660000006020820152600091506103cb565b5050604080516020810190915260008152600191505b965096945050505050565b60006103e1826104e6565b92915050565b60006103f28261042d565b805190602001209050919050565b6040805160808101825260008082526020820181905291810182905260608101919091526103e1826106b7565b60606103e18261079e565b610440612180565b6103e182610ae8565b60606103e161045783610d21565b610e5b565b6060600061046983610eab565b905061048061047a825160c0610fde565b82611195565b9392505050565b604051815160005b818110156104c8578060200184015160f01c610f001660041c60108260200186015160f01c06018160011c60200184015360020161048f565b5060029004808252601f19601f909101168101602001604052919050565b60008082604001518360800151815181106105035761050361286e565b60200260200101519050600061052061051b83611212565b61123f565b9050836060015160000361059d57835182516020840120146105985760405162461bcd60e51b815260206004820152602660248201527f7665726966795472696550726f6f6620726f6f74206e6f6465206861736820696044820152651b9d985b1a5960d21b60648201526084015b60405180910390fd5b610657565b60208251101561060a5760006105ba6105b5836112ee565b61138e565b855190915081146106045760405162461bcd60e51b81526020600482015260146024820152733b32b934b33caa3934b2a83937b7b3101e10199960611b604482015260640161058f565b50610657565b835182516020840120146106575760405162461bcd60e51b81526020600482015260146024820152737665726966795472696550726f6f6620656c736560601b604482015260640161058f565b6000610666826000015161144a565b90508060110361068257610679856114cf565b95945050505050565b8060020361069457610679828661161b565b8460a00151516000036106ac57506001949350505050565b506000949350505050565b6040805160808101825260008082526020820181905291810182905260608101829052906106e761051b84611212565b905060005b6106f5826118e9565b1561079757806000036107155761070e6105b5836112ee565b8352610785565b80600103610733576107296105b5836112ee565b6020840152610785565b806002036107595761074f61016861074a846112ee565b61190d565b6040840152610785565b8060030361077a5761077061016861074a846112ee565b6060840152610785565b610783826112ee565b505b8061078f8161289a565b9150506106ec565b5050919050565b60408051600f808252610200820190925260609160009190816020015b60608152602001906001900390816107bb57905050905061080083602001516040516020016107ec91815260200190565b604051602081830303815290604052610e5b565b816000815181106108135761081361286e565b602002602001018190525061083883604001516040516020016107ec91815260200190565b8160018151811061084b5761084b61286e565b602002602001018190525061086383606001516119f6565b816002815181106108765761087661286e565b602002602001018190525061089b83608001516040516020016107ec91815260200190565b816003815181106108ae576108ae61286e565b60200260200101819052506108d38360a001516040516020016107ec91815260200190565b816004815181106108e6576108e661286e565b602002602001018190525061090b8360c001516040516020016107ec91815260200190565b8160058151811061091e5761091e61286e565b60200260200101819052506109368360e00151610e5b565b816006815181106109495761094961286e565b6020026020010181905250610962836101000151610449565b816007815181106109755761097561286e565b602002602001018190525061098e836101200151610449565b816008815181106109a1576109a161286e565b60200260200101819052506109ba836101400151610449565b816009815181106109cd576109cd61286e565b60200260200101819052506109e6836101600151610449565b81600a815181106109f9576109f961286e565b6020026020010181905250610a12836101800151610449565b81600b81518110610a2557610a2561286e565b6020026020010181905250610a3e836101a00151610e5b565b81600c81518110610a5157610a5161286e565b6020026020010181905250610a77836101c001516040516020016107ec91815260200190565b81600d81518110610a8a57610a8a61286e565b6020026020010181905250610ac1836101e001516040516020016107ec919060c09190911b6001600160c01b031916815260080190565b81600e81518110610ad457610ad461286e565b60200260200101819052506104808161045c565b610af0612180565b6000610afe61051b84611212565b905060005b610b0c826118e9565b15610d0f5780600003610b2f57610b256105b5836112ee565b6020840152610cfd565b80600103610b4d57610b436105b5836112ee565b6040840152610cfd565b80600203610b7957610b66610b61836112ee565b611a19565b6001600160a01b03166060840152610cfd565b80600303610b9757610b8d6105b5836112ee565b6080840152610cfd565b80600403610bb557610bab6105b5836112ee565b60a0840152610cfd565b80600503610bd357610bc96105b5836112ee565b60c0840152610cfd565b80600603610bf157610be761074a836112ee565b60e0840152610cfd565b80600703610c1057610c056105b5836112ee565b610100840152610cfd565b80600803610c2f57610c246105b5836112ee565b610120840152610cfd565b80600903610c4e57610c436105b5836112ee565b610140840152610cfd565b80600a03610c6d57610c626105b5836112ee565b610160840152610cfd565b80600b03610c8c57610c816105b5836112ee565b610180840152610cfd565b80600c03610cab57610ca061074a836112ee565b6101a0840152610cfd565b80600d03610cca57610cbf6105b5836112ee565b6101c0840152610cfd565b80600e03610cf257610cde6105b5836112ee565b6001600160401b03166101e0840152610cfd565b610cfb826112ee565b505b80610d078161289a565b915050610b03565b50508151602090920191909120815290565b6040805160208082528183019092526060916000919060208201818036833701905050905082602082015260005b6020811015610d9257818181518110610d6a57610d6a61286e565b01602001516001600160f81b031916600003610d925780610d8a8161289a565b915050610d4f565b6000610d9f8260206128b3565b6001600160401b03811115610db657610db661220b565b6040519080825280601f01601f191660200182016040528015610de0576020820181803683370190505b50905060005b8151811015610e52578383610dfa8161289a565b945081518110610e0c57610e0c61286e565b602001015160f81c60f81b828281518110610e2957610e2961286e565b60200101906001600160f81b031916908160001a90535080610e4a8161289a565b915050610de6565b50949350505050565b60608082516001148015610e8a5750608083600081518110610e7f57610e7f61286e565b016020015160f81c11155b15610e965750816103e1565b610480610ea584516080610fde565b84611195565b60608151600003610ecf5760408051600080825260208201909252905b5092915050565b6000805b8351811015610f1657838181518110610eee57610eee61286e565b60200260200101515182610f0291906128c6565b915080610f0e8161289a565b915050610ed3565b6000826001600160401b03811115610f3057610f3061220b565b6040519080825280601f01601f191660200182016040528015610f5a576020820181803683370190505b50600092509050602081015b8551831015610e52576000868481518110610f8357610f8361286e565b602002602001015190506000602082019050610fa183828451611a82565b878581518110610fb357610fb361286e565b60200260200101515183610fc791906128c6565b925050508280610fd69061289a565b935050610f66565b6060806038841015611048576040805160018082528183019092529060208201818036833701905050905061101383856128c6565b601f1a60f81b8160008151811061102c5761102c61286e565b60200101906001600160f81b031916908160001a905350610480565b600060015b61105781876128ef565b1561107d57816110668161289a565b9250611076905061010082612903565b905061104d565b6110888260016128c6565b6001600160401b0381111561109f5761109f61220b565b6040519080825280601f01601f1916602001820160405280156110c9576020820181803683370190505b5092506110d685836128c6565b6110e19060376128c6565b601f1a60f81b836000815181106110fa576110fa61286e565b60200101906001600160f81b031916908160001a905350600190505b81811161118b5761010061112a82846128b3565b61113690610100612a06565b61114090886128ef565b61114a9190612a12565b601f1a60f81b8382815181106111625761116261286e565b60200101906001600160f81b031916908160001a905350806111838161289a565b915050611116565b5050905092915050565b6060806040519050835180825260208201818101602087015b818310156111c65780518352602092830192016111ae565b50855184518101855292509050808201602086015b818310156111f35780518352602092830192016111db565b508651929092011591909101601f01601f191660405250905092915050565b60408051808201825260008082526020918201528151808301909252825182529182019181019190915290565b604080516080810182526000918101828152606082018390528152602081019190915261126b82611afa565b6112b75760405162461bcd60e51b815260206004820152601f60248201527f524c504465636f646572206974657261746f72206973206e6f74206c69737400604482015260640161058f565b60006112c68360200151611b35565b83602001516112d591906128c6565b6040805180820190915293845260208401525090919050565b604080518082019091526000808252602082015261130b826118e9565b6113575760405162461bcd60e51b815260206004820152601f60248201527f524c504465636f646572206974657261746f7220686173206e6f206e65787400604482015260640161058f565b6020820151600061136782611bb0565b905061137381836128c6565b60209485015260408051808201909152908152928301525090565b8051600090158015906113a357508151602110155b6113ef5760405162461bcd60e51b815260206004820181905260248201527f524c504465636f64657220746f55696e7420696e76616c6964206c656e677468604482015260640161058f565b60006113fe8360200151611b35565b9050600081846000015161141291906128b3565b905060008083866020015161142791906128c6565b9050805191506020831015610e5257506020919091036101000a90049392505050565b8051600090810361145d57506000919050565b60008061146d8460200151611b35565b846020015161147c91906128c6565b905060008460000151856020015161149491906128c6565b90505b808210156114c6576114a882611bb0565b6114b290836128c6565b9150826114be8161289a565b935050611497565b50909392505050565b60008082604001518360800151815181106114ec576114ec61286e565b6020026020010151905082602001515183606001511061156657600061153b61151c61151784611212565b611c54565b60108151811061152e5761152e61286e565b602002602001015161190d565b90508360a0015180519060200120818051906020012003611560575060019392505050565b506115fc565b600083602001518460600151815181106115825761158261286e565b016020015160f81c905060006115ae61159d61151785611212565b838151811061152e5761152e61286e565b905080516000146115f95760208101518552606085018051600191906115d59083906128c6565b905250608085018051600191906115ed9083906128c6565b905250610679856104e6565b50505b8260a00151516000036116125750600192915050565b50600092915050565b60008061162a61074a856112ee565b9050600061163a61074a866112ee565b602083015190915060fc1c60028190036116fb5760006001845161165e91906128b3565b90506000611670856001846000611db6565b9050600061168988602001518960600151856000611db6565b905084805190602001208860a0015180519060200120036116f35780805190602001208280519060200120036116c857600196505050505050506103e1565b805160208201206116d883611e9a565b80519060200120036116f357600196505050505050506103e1565b5050506118c4565b806003036117ad57600061171484600086516001611db6565b60208701516060880151815192935060009261173e9291906117379082906128b3565b6000611db6565b905083805190602001208760a0015180519060200120036117a657808051906020012082805190602001200361177c576001955050505050506103e1565b8051602082012061178c83611fd1565b80519060200120036117a6576001955050505050506103e1565b50506118c4565b80600003611873576000600184516117c591906128b3565b905060006117d7856001846000611db6565b905060006117f088602001518960600151856000611db6565b905080805190602001208280519060200120148061182257508051602082012061181983611e9a565b80519060200120145b156116f357602085015188526060880180518491906118429083906128c6565b9052506080880180516001919061185a9083906128c6565b905250611866886104e6565b96505050505050506103e1565b8060010361188c57825160006117d78582846001611db6565b60405162461bcd60e51b815260206004820152600d60248201526c24b73b30b634b210383937b7b360991b604482015260640161058f565b8460a00151516000036118dd57600193505050506103e1565b600093505050506103e1565b805180516020820151600092916118ff916128c6565b836020015110915050919050565b80516060906119685760405162461bcd60e51b815260206004820152602160248201527f524c504465636f64657220746f427974657320696e76616c6964206c656e67746044820152600d60fb1b606482015260840161058f565b60006119778360200151611b35565b9050600081846000015161198b91906128b3565b90506000816001600160401b038111156119a7576119a761220b565b6040519080825280601f01601f1916602001820160405280156119d1576020820181803683370190505b5090506000816020019050610e528487602001516119ef91906128c6565b8285612132565b60408051600560a21b831860148201526034810190915260609061048081610e5b565b8051600090601514611a795760405162461bcd60e51b815260206004820152602360248201527f524c504465636f64657220746f4164647265737320696e76616c6964206c656e6044820152620cee8d60eb1b606482015260840161058f565b6103e18261138e565b8282825b60208110611abe5781518352611a9d6020846128c6565b9250611aaa6020836128c6565b9150611ab76020826128b3565b9050611a86565b60006001611acd8360206128b3565b611ad990610100612a06565b611ae391906128b3565b925184518416931916929092179092525050505050565b80516000908103611b0d57506000919050565b6020820151805160001a9060c0821015611b2b575060009392505050565b5060019392505050565b8051600090811a6080811015611b4e5750600092915050565b60b8811080611b69575060c08110801590611b69575060f881105b15611b775750600192915050565b60c0811015611ba457611b8c600160b8612a26565b611b999060ff16826128b3565b6104809060016128c6565b611b8c600160f8612a26565b80516000908190811a6080811015611bcb5760019150610ec8565b60b8811015611bf157611bdf6080826128b3565b611bea9060016128c6565b9150610ec8565b60c0811015611c1e5760b78103600185019450806020036101000a85510460018201810193505050610ec8565b60f8811015611c3257611bdf60c0826128b3565b60019390930151602084900360f7016101000a900490920160f5190192915050565b6060611c5f82611afa565b611cb55760405162461bcd60e51b815260206004820152602160248201527f524c504465636f646572206974657261746f72206973206e6f742061206c69736044820152601d60fa1b606482015260840161058f565b6000611cc08361144a565b90506000816001600160401b03811115611cdc57611cdc61220b565b604051908082528060200260200182016040528015611d2157816020015b6040805180820190915260008082526020820152815260200190600190039081611cfa5790505b5090506000611d338560200151611b35565b8560200151611d4291906128c6565b90506000805b84811015611dab57611d5983611bb0565b9150604051806040016040528083815260200184815250848281518110611d8257611d8261286e565b6020908102919091010152611d9782846128c6565b925080611da38161289a565b915050611d48565b509195945050505050565b60606000611dc56020856128ef565b90506000611dd4602086612a12565b611ddf906008612903565b611deb906101006128b3565b9050602060008080886001600160401b03811115611e0b57611e0b61220b565b6040519080825280601f01601f191660200182016040528015611e35576020820181803683370190505b5090508a8a0191508715611e5f57818401516001600160fc1b031681850152602090930192600192505b825b86811015611e7f578285015182860152602090940193600101611e61565b5083820151851c851b84820152505050505050949350505050565b6060600082516002611eac9190612903565b90506000816001600160401b03811115611ec857611ec861220b565b6040519080825280601f01601f191660200182016040528015611ef2576020820181803683370190505b50905060005b8451811015611fc957600080611f3c878481518110611f1957611f1961286e565b01602001516001600160f81b031916600481901c916001600160fc1b0390911690565b90925090508184611f4e856002612903565b81518110611f5e57611f5e61286e565b60200101906001600160f81b031916908160001a9053508084611f82856002612903565b611f8d9060016128c6565b81518110611f9d57611f9d61286e565b60200101906001600160f81b031916908160001a90535050508080611fc19061289a565b915050611ef8565b509392505050565b60606000600183516002611fe59190612903565b611fef91906128b3565b90506000816001600160401b0381111561200b5761200b61220b565b6040519080825280601f01601f191660200182016040528015612035576020820181803683370190505b5090508360008151811061204b5761204b61286e565b602001015160f81c60f81b816000815181106120695761206961286e565b60200101906001600160f81b031916908160001a90535060015b8451811015611fc9576000806120a4878481518110611f1957611f1961286e565b9092509050818460016120b8866002612903565b6120c291906128b3565b815181106120d2576120d261286e565b60200101906001600160f81b031916908160001a90535080846120f6856002612903565b815181106121065761210661286e565b60200101906001600160f81b031916908160001a9053505050808061212a9061289a565b915050612083565b8060000361213f57505050565b5b6020811061215f578251825260209283019290910190601f1901612140565b915181516020939093036101000a6000190180199091169216919091179052565b604080516102208101825260008082526020820181905291810182905260608082018390526080820183905260a0820183905260c0820183905260e08201819052610100820183905261012082018390526101408201839052610160820183905261018082018390526101a08201526101c081018290526101e0810182905261020081019190915290565b634e487b7160e01b600052604160045260246000fd5b60405161022081016001600160401b03811182821017156122445761224461220b565b60405290565b60405160c081016001600160401b03811182821017156122445761224461220b565b604051601f8201601f191681016001600160401b03811182821017156122945761229461220b565b604052919050565b80356001600160a01b03811681146122b357600080fd5b919050565b600082601f8301126122c957600080fd5b81356001600160401b038111156122e2576122e261220b565b6122f5601f8201601f191660200161226c565b81815284602083860101111561230a57600080fd5b816020850160208301376000918101602001919091529392505050565b80356001600160401b03811681146122b357600080fd5b6000610220828403121561235157600080fd5b612359612221565b905081358152602082013560208201526040820135604082015261237f6060830161229c565b60608201526080820135608082015260a082013560a082015260c082013560c082015260e08201356001600160401b03808211156123bc57600080fd5b6123c8858386016122b8565b60e0840152610100848101359084015261012080850135908401526101408085013590840152610160808501359084015261018080850135908401526101a09150818401358181111561241a57600080fd5b612426868287016122b8565b838501525050506101c08083013581830152506101e0612447818401612327565b818301525061020080830135818301525092915050565b600082601f83011261246f57600080fd5b813560206001600160401b038083111561248b5761248b61220b565b8260051b61249a83820161226c565b93845285810183019383810190888611156124b457600080fd5b84880192505b858310156124f0578235848111156124d25760008081fd5b6124e08a87838c01016122b8565b83525091840191908401906124ba565b98975050505050505050565b600060c0828403121561250e57600080fd5b61251661224a565b90508135815260208201356001600160401b038082111561253657600080fd5b612542858386016122b8565b6020840152604084013591508082111561255b57600080fd5b6125678583860161245e565b6040840152606084013560608401526080840135608084015260a084013591508082111561259457600080fd5b506125a1848285016122b8565b60a08301525092915050565b60008060008060008060c087890312156125c657600080fd5b86356001600160401b03808211156125dd57600080fd5b6125e98a838b0161233e565b975060208901359150808211156125ff57600080fd5b5061260c89828a016124fc565b95505060408701359350606087013592506080870135915061263060a0880161229c565b90509295509295509295565b6000815180845260005b8181101561266257602081850181015186830182015201612646565b506000602082860101526020601f19601f83011685010191505092915050565b821515815260406020820152600061269d604083018461263c565b949350505050565b6000602082840312156126b757600080fd5b81356001600160401b038111156126cd57600080fd5b61269d848285016124fc565b6000602082840312156126eb57600080fd5b81356001600160401b0381111561270157600080fd5b61269d8482850161233e565b60006020828403121561271f57600080fd5b81356001600160401b0381111561273557600080fd5b61269d848285016122b8565b602081526000610480602083018461263c565b602081528151602082015260208201516040820152604082015160608201526000606083015161278f60808401826001600160a01b03169052565b50608083015160a083015260a083015160c083015260c083015160e083015260e083015161022061010081818601526127cc61024086018461263c565b90860151610120868101919091528601516101408087019190915286015161016080870191909152860151610180808701919091528601516101a080870191909152860151858203601f19016101c08088019190915291935090612830848361263c565b908701516101e087810191909152870151909350905061020061285d818701836001600160401b03169052565b959095015193019290925250919050565b634e487b7160e01b600052603260045260246000fd5b634e487b7160e01b600052601160045260246000fd5b6000600182016128ac576128ac612884565b5060010190565b818103818111156103e1576103e1612884565b808201808211156103e1576103e1612884565b634e487b7160e01b600052601260045260246000fd5b6000826128fe576128fe6128d9565b500490565b600081600019048311821515161561291d5761291d612884565b500290565b600181815b8085111561295d57816000190482111561294357612943612884565b8085161561295057918102915b93841c9390800290612927565b509250929050565b600082612974575060016103e1565b81612981575060006103e1565b816001811461299757600281146129a1576129bd565b60019150506103e1565b60ff8411156129b2576129b2612884565b50506001821b6103e1565b5060208310610133831016604e8410600b84101617156129e0575081810a6103e1565b6129ea8383612922565b80600019048211156129fe576129fe612884565b029392505050565b60006104808383612965565b600082612a2157612a216128d9565b500690565b60ff82811682821603908111156103e1576103e161288456fe7665726966794163636f756e74202d20646966666572656e74207472696520726f6f74737665726966794163636f756e74202d20646966666572656e74206163636f756e7420616464726573737665726966794163636f756e74202d20646966666572656e74206163636f756e742064617461a26469706673582212205bc1104e675ea7839dee5af05a602d4603941d8ac6c69857829696e401ea1d6264736f6c63430008100033",
    "linkReferences": {}
  },
  "methodIdentifiers": {
    "bytesToBytes32(bytes)": "bfe370d9",
    "getBlockHash((bytes32,bytes32,bytes32,address,bytes32,bytes32,bytes32,bytes,uint256,uint256,uint256,uint256,uint256,bytes,bytes32,uint64,uint256))": "895308fa",
    "getBlockRlpData((bytes32,bytes32,bytes32,address,bytes32,bytes32,bytes32,bytes,uint256,uint256,uint256,uint256,uint256,bytes,bytes32,uint64,uint256))": "d76f7f0d",
    "getTransactionHash(bytes)": "a2deadbd",
    "toAccount(bytes)": "b3dd6a0a",
    "toBlockHeader(bytes)": "e7617bf8",
    "verifyAccount((bytes32,bytes32,bytes32,address,bytes32,bytes32,bytes32,bytes,uint256,uint256,uint256,uint256,uint256,bytes,bytes32,uint64,uint256),(bytes32,bytes,bytes[],uint256,uint256,bytes),uint256,uint256,uint256,address)": "4d11c6f6",
    "verifyTrieProof((bytes32,bytes,bytes[],uint256,uint256,bytes))": "55eff580"
  },
  "id": 0
}